{
  "contractName": "MiniTokenBank",
  "abi": [
    {
      "inputs": [],
      "stateMutability": "nonpayable",
      "type": "constructor"
    },
    {
      "inputs": [
        {
          "internalType": "address",
          "name": "",
          "type": "address"
        }
      ],
      "name": "balances",
      "outputs": [
        {
          "internalType": "uint256",
          "name": "",
          "type": "uint256"
        }
      ],
      "stateMutability": "view",
      "type": "function"
    },
    {
      "inputs": [],
      "name": "owner",
      "outputs": [
        {
          "internalType": "address",
          "name": "",
          "type": "address"
        }
      ],
      "stateMutability": "view",
      "type": "function"
    },
    {
      "inputs": [
        {
          "internalType": "uint256",
          "name": "amount",
          "type": "uint256"
        }
      ],
      "name": "deposit",
      "outputs": [],
      "stateMutability": "nonpayable",
      "type": "function"
    },
    {
      "inputs": [
        {
          "internalType": "address",
          "name": "to",
          "type": "address"
        },
        {
          "internalType": "uint256",
          "name": "amount",
          "type": "uint256"
        }
      ],
      "name": "transfer",
      "outputs": [],
      "stateMutability": "nonpayable",
      "type": "function"
    },
    {
      "inputs": [
        {
          "internalType": "address",
          "name": "user",
          "type": "address"
        }
      ],
      "name": "getBalance",
      "outputs": [
        {
          "internalType": "uint256",
          "name": "",
          "type": "uint256"
        }
      ],
      "stateMutability": "view",
      "type": "function"
    }
  ],
  "bytecode": "0x608060405234801561001057600080fd5b5033600160006101000a81548173ffffffffffffffffffffffffffffffffffffffff021916908373ffffffffffffffffffffffffffffffffffffffff1602179055506105f5806100616000396000f3fe608060405234801561001057600080fd5b50600436106100575760003560e01c806327e235e31461005c5780638da5cb5b1461008c578063a9059cbb146100aa578063b6b55f25146100c6578063f8b2cb4f146100e2575b600080fd5b61007660048036038101906100719190610349565b610112565b6040516100839190610470565b60405180910390f35b61009461012a565b6040516100a19190610435565b60405180910390f35b6100c460048036038101906100bf9190610372565b610150565b005b6100e060048036038101906100db91906103ae565b61027f565b005b6100fc60048036038101906100f79190610349565b6102d7565b6040516101099190610470565b60405180910390f35b60006020528060005260406000206000915090505481565b600160009054906101000a900473ffffffffffffffffffffffffffffffffffffffff1681565b806000803373ffffffffffffffffffffffffffffffffffffffff1673ffffffffffffffffffffffffffffffffffffffff1681526020019081526020016000205410156101d1576040517f08c379a00000000000000000000000000000000000000000000000000000000081526004016101c890610450565b60405180910390fd5b806000803373ffffffffffffffffffffffffffffffffffffffff1673ffffffffffffffffffffffffffffffffffffffff168152602001908152602001600020600082825461021f91906104f2565b92505081905550806000808473ffffffffffffffffffffffffffffffffffffffff1673ffffffffffffffffffffffffffffffffffffffff1681526020019081526020016000206000828254610274919061049c565b925050819055505050565b806000803373ffffffffffffffffffffffffffffffffffffffff1673ffffffffffffffffffffffffffffffffffffffff16815260200190815260200160002060008282546102cd919061049c565b9250508190555050565b60008060008373ffffffffffffffffffffffffffffffffffffffff1673ffffffffffffffffffffffffffffffffffffffff168152602001908152602001600020549050919050565b60008135905061032e81610591565b92915050565b600081359050610343816105a8565b92915050565b60006020828403121561035b57600080fd5b60006103698482850161031f565b91505092915050565b6000806040838503121561038557600080fd5b60006103938582860161031f565b92505060206103a485828601610334565b9150509250929050565b6000602082840312156103c057600080fd5b60006103ce84828501610334565b91505092915050565b6103e081610526565b82525050565b60006103f360138361048b565b91507f4e6f7420656e6f7567682062616c616e636521000000000000000000000000006000830152602082019050919050565b61042f81610558565b82525050565b600060208201905061044a60008301846103d7565b92915050565b60006020820190508181036000830152610469816103e6565b9050919050565b60006020820190506104856000830184610426565b92915050565b600082825260208201905092915050565b60006104a782610558565b91506104b283610558565b9250827fffffffffffffffffffffffffffffffffffffffffffffffffffffffffffffffff038211156104e7576104e6610562565b5b828201905092915050565b60006104fd82610558565b915061050883610558565b92508282101561051b5761051a610562565b5b828203905092915050565b600061053182610538565b9050919050565b600073ffffffffffffffffffffffffffffffffffffffff82169050919050565b6000819050919050565b7f4e487b7100000000000000000000000000000000000000000000000000000000600052601160045260246000fd5b61059a81610526565b81146105a557600080fd5b50565b6105b181610558565b81146105bc57600080fd5b5056fea2646970667358221220eb2c533a543f6cf36166b7d4155901f68bb4f850ef8c2daa550c46fb2ae41fda64736f6c63430008000033",
  "immutableReferences": {},
  "source": "// SPDX-License-Identifier: MIT\r\npragma solidity ^0.8.0;\r\n\r\ncontract MiniTokenBank {\r\n    mapping(address => uint256) public balances;\r\n    address public owner;\r\n\r\n    constructor() {\r\n        owner = msg.sender; \r\n    }\r\n\r\n    \r\n    function deposit(uint256 amount) public {\r\n        balances[msg.sender] += amount;\r\n    }\r\n\r\n    \r\n    function transfer(address to, uint256 amount) public {\r\n        require(balances[msg.sender] >= amount, \"Not enough balance!\");\r\n        balances[msg.sender] -= amount;\r\n        balances[to] += amount;\r\n    }\r\n\r\n    function getBalance(address user) public view returns (uint256) {\r\n        return balances[user];\r\n    }\r\n}\r\n",
  "sourcePath": "C:\\Users\\PAK\\Desktop\\Assignment 3-23i5035\\contracts\\MiniTokenBank.sol.sol",
  "compiler": {
    "name": "solc",
    "version": "0.8.0+commit.c7dfd78e.Emscripten.clang"
  },
  "schemaVersion": "3.4.16",
  "updatedAt": "2025-11-23T13:39:43.365Z",
  "devdoc": {
    "kind": "dev",
    "methods": {},
    "version": 1
  },
  "userdoc": {
    "kind": "user",
    "methods": {},
    "version": 1
  }
}